:100000000EC01DC01CC01BC01AC019C018C017C02C
:1000100016C015C014C013C012C057C075C011243B
:100020001FBECFE5D2E0DEBFCDBF20E0A0E6B0E04E
:1000300001C01D92A536B207E1F714D0E3C0E0CFAE
:10004000379A96B1976096B93D9A97B1982B97B920
:10005000089597B1982B97B9349A369A349BFECF6E
:1000600085B10895F89485B7806485BF80E187BB2A
:1000700088BB83E0E5DF8AE605D0789483E0E9DF9A
:1000800010D0FCCF80936400109263001092620045
:10009000C29AC09ABA9AB89888EA8DB980EF8EB998
:1000A0000895809361000895813831F0803C41F0DB
:1000B000803851F4C49801C0C49A10926300089526
:1000C000809161008093620008951F920F920FB695
:1000D0000F9211248F931092600080E28EB9B8982D
:1000E000B29902C088EF07C0759BFACFC29AC09A36
:1000F000BA9AB89888EA8DB980EF8EB98F910F902F
:100100000FBE0F901F9018951F920F920FB60F926F
:1001100011242F933F934F935F936F937F938F930C
:100120009F93AF93BF93EF93FF939FB18091600034
:100130008230E9F130F4882359F0813009F051C060
:1001400028C08430D9F1C8F0853009F04AC03DC0DC
:10015000992331F080916400292F269528130FC030
:1001600090FF06C080916300803C48F081E001C0B0
:1001700084E080936000B89A1EC090FF0AC010927D
:100180006000C29AC09ABA9AB89888EA8DB980EF8E
:100190001AC080916300803C29F410926300809122
:1001A00061008FB982E080936000B89A0BC083E051
:1001B00080936000B8981FB88EE705C085E08093F3
:1001C0006000B89880E78EB90CC09093630084E01B
:1001D00080936000B89A1FB88EE78EB98091630053
:1001E00063DFFF91EF91BF91AF919F918F917F91CD
:1001F0006F915F914F913F912F910F900FBE0F9094
:080200001F901895F894FFCF40
:00000001FF
