:100000003FC000006FC000006DC000006BC000006A
:1000100069C0000067C0000065C0000063C0000048
:1000200061C000005FC000005DC000005BC0000058
:1000300059C0000057C0000055C0000099C300001F
:1000400051C000004FC000004DC000004BC0000078
:1000500049C0000047C0000045C0000043C0000088
:1000600041C000003FC000003DC0000002C30000CE
:10007000FAC2000004C3000035C00000E7035B06BD
:1000800011241FBECFEFCDBFDFE3DEBF8091400064
:1000900080934000811105C098ED21E094BF20932A
:1000A00041008CBB28E3A6E0B8E301C01D92AB3B46
:1000B000B207E1F718E3A0E0B8E3E2E6F4E102C03A
:1000C00005900D92A630B107D9F710E0CFE3D0E04C
:1000D00003C02197FE01CED7CE33D107D1F7E9D3A4
:1000E0000C9474098DCF8F929F92AF92BF92CF9252
:1000F000DF92EF92FF92CF934B01AA24BB24C82D2D
:10010000C52ED62EE72EFF24BC2DA42F2091A93872
:10011000222361F0829E40011124C92D2C9D600193
:100120001124BD2D249FF0011124AF2FE091AF3891
:10013000E090AA38F090AB383091AC38E31323C08C
:100140009C01220F331F820F931F8E0D9F1DE09184
:10015000AC38E80FF92FF11DC083E091AD38E80FFE
:10016000F92FF11DB0832091AE38820F911DFC0153
:10017000A083CF91FF90EF90DF90CF90BF90AF9092
:100180009F908F900895880F991F880F991F8E0D4B
:100190009F1D472F552766277727222349F030E0F8
:1001A000249F7001259FF00C349FF00C11244F2DDB
:1001B000E80FF92FF11D4083CACFAF92BF92CF92C3
:1001C000DF92EF92FF920F931F93CF93DF936C0117
:1001D0007B018B01040F151FEB015E01AE18BF08F8
:1001E000C017D10759F06991D601ED91FC910190AA
:1001F000F081E02DC6010995892B79F7C501DF91C2
:10020000CF911F910F91FF90EF90DF90CF90BF9013
:10021000AF900895FC0157854089252F30E0842F49
:1002200090E0821B930B541710F0CF96089501971E
:100230000895FC0195858685981761F0A685AE0F17
:10024000BF2FB11D51968C9196859F5F9F739687A6
:1002500090E008958FEF9FEF0895FC0195858685C6
:10026000981731F08685E80FF11D818990E0089597
:100270008FEF9FEF0895FC0195852685892F90E0EB
:10028000805C9F4F821B91098F7399270895DC0131
:100290000FB607FE04C0809111018823B1F01896B3
:1002A000ED91FC911997848185FF0FC01F969C9159
:1002B0001F9750968C91981304C085818F7D8583FC
:1002C0000895E0E1F8E3E894E7C108950F931F93E0
:1002D000CF93DF93EC018C8581608C879F85888923
:1002E00098130BC0E885F985848185FF06C08C854D
:1002F00081FD0DC080E4848312C0062F1F851F5F1F
:100300001F738889811315C0CE01C1DFFACF8581A3
:100310008F77806490E49483E885F9858583E88508
:10032000F985628381E090E0DF91CF911F910F9179
:100330000895EF85EC0FFD2FF11DEF5AFF4F00835D
:100340001F878C85E885F98581FF09C085818F77B6
:10035000806690E49483E885F9858583E3CF858181
:100360008062FBCFCF93DF93EC018C85882359F01B
:10037000E885F985858185FD03C0848186FD03C0FC
:10038000CE0185DFF5CFDF91CF9108959FB7F89427
:1003900088E08093840A80918E0A81FFFCCF80914F
:1003A0008D0AE091A20AF091A30A209106383091BB
:1003B000073840910838509109389FBF80FF07C027
:1003C000E730F10520F42F5F3F4F4F4F5F4FBF01E4
:1003D00076956795CF01860F911DE62FE695E695F8
:1003E000762F72957F70E71BFF0B67FD3196E80F44
:1003F000F91FA0E3B3E034D66E0F7F1F811D911D5E
:1004000008950F931F93CF93DF93CDB7DEB7279750
:10041000CDBFDEBF8091A4389091A53889839A839F
:100420008091AA389091AB38892B09F469C08091EA
:10043000A838823108F064C0A9DF0091B03810916B
:10044000B1382091B2383091B338AB01BC01401BB8
:10045000510B620B730B8091A6389091A738B0E0D6
:10046000A0E0481759076A077B0730F3F894A0917A
:10047000AA38B091AB38FD0131968C918F83A09151
:10048000B438B091B5389C918091B638982B9E8342
:100490009C91809589238D838D818C8388E08B83CB
:1004A0005E816D814F813B812C8189819A815C9332
:1004B00047FD252F3A95000000C02C93262F41F0D0
:1004C000441F00C000006C9301D0F1CF00C008951C
:1004D00038E0419100006C93000000C000C001971B
:1004E00031F74F833B832C8389839A8378944EDF43
:1004F0006093B0387093B1388093B2389093B3382A
:100500002796CDBFDEBFDF91CF911F910F91089548
:10051000CF93DF93823108F043C090E0EC01C25CDE
:10052000DB4628812F3F09F43BC0AC01405B5B46B2
:10053000DA01EC91B0E2EB9FF0011124FC5F26831D
:100540003081232391F49C01265E3B46D9012C91F6
:10055000309749F1283038F57096E20FF11D3FB71A
:10056000F8942081277F20833FBF885F9B46FC0152
:1005700090819923A9F088819034E9F09038C1F0F6
:10058000903171F4DA019C91913081F4853010F052
:10059000880F82959091010A809589238093010AA2
:1005A000DF91CF910895F0E0E0E0D9CF880FF2CF4E
:1005B0001092A006F5CF20E4823009F420E8909153
:1005C000920A922369F36FB7F8949091800A9E7F04
:1005D0009093800A4091920A30E02095309550E047
:1005E0002423352398ED94BF2093920A90918E0A8C
:1005F00090FFFCCF9091800A91609093800A8130A7
:1006000039F4809150048F77809350046FBFC8CF26
:10061000809151048F7780935104F8CF8231F0F4A8
:1006200090E0FC01E25CFB4620812F3FB9F0FC0129
:10063000E05BFB46E08130E2E39FF0011124FC5FC8
:1006400060FF0DC02183865E9B46DC018C91E80F24
:10065000F11D808961FF05C08860808B0895228329
:10066000F2CF877FFACFEF93FF93F898E0E1F8E3BA
:100670000BC0EF93FF93F898E0E1F8E333C0EF93FA
:10068000FF93E0E1F8E35BC02F932FB72F938F9395
:100690009F93AF93BF936894CF93DF9320E0C0857F
:1006A000D8E09089DF01A90FB21FAF5ABF4F8C91DC
:1006B00020E42C838A839F5F9F738D812785291374
:1006C00002C08F7D8D83908BDF91CF910EF0FDCD99
:1006D000BF91AF919F918F912F912FBF2F91FF913C
:1006E000EF9118952F932FB72F933F938F939F934D
:1006F000CF93DF93C085D8E0898198818674880F75
:100700003485382B82FD0DC0C58581E08C0F8F7339
:100710002685281791F0CE0FDF2F20E0D21F998B6E
:1007200085873487DF91CF919F918F913F912F9152
:100730002FBF2F91FF91EF9118953064F2CF8F93D7
:100740008FB78F939F93CF93DF93C085D8E09D8120
:1007500088818C8187FDFCCF9F7B90689D83DF9192
:10076000CF919F918F918FBF8F91FF91EF911895AE
:100770008F9381E080938D0A8FB78F93EF93FF93D0
:10078000E6E0F8E39F9368948FEF0DC0E8948481CE
:100790009581805D9C4F84839583885E934080F033
:1007A000848395838FEF9081981B919390819F4FC5
:1007B000919390819F4F919390819F4F919336F3A6
:1007C0009F91FF91EF918F918FBF8F91189510920C
:1007D00012381092133888EE93E0A0E0B0E08093D6
:1007E000143890931538A0931638B093173880E3D7
:1007F00094E9809310389093113880E098E08093CA
:1008000018389093193810921A3810921B38109299
:10081000A13882E390E08093A6389093A738109295
:10082000A9381092B0381092B1381092B2381092A4
:10083000B33881E08093AF388093AC381092AD38F4
:1008400082E08093AE388CE090E08093A43890935F
:10085000A53825D48093AA389093AB38009701F13E
:100860002CE0FC0111922A95E9F784E090E0809356
:10087000A2389093A3381092A8388091A138882389
:1008800029F061E080E0CADE80E042DE84E094E0AE
:100890008093B4389093B53880E18093B63808954A
:1008A0001092A4381092A5381092A2381092A33852
:1008B000E2CFCF93DF93CDB7DEB72A97CDBFDEBFB0
:1008C00088ED90E084BF90936100E0E0F6E083E57E
:1008D00082838DE0858380E2838381E08083109230
:1008E00002028093030A9EEF9093260A9093270AB0
:1008F0009BE09093000AE0E8FAE02DEF31E026A7B4
:1009000037A7118290E89283848781E1808378946D
:1009100080911C3880FF11C080E198E323DDE091D5
:100920001838F09119381682158280EC84838091F2
:100930001E3880931D3810921C381FB7F894E09130
:100940001838F0911938168283E0878386EB92E09D
:1009500080879187148680E8858380EC86839091D8
:100960001B3820911A38298380910102992309F4B8
:100970003BC0816080930102A981A90FBB27BB1FE7
:10098000AA0FBB1FAA0FBB1FA050BD46A983BA83E5
:1009900061E08C9143DE62E0E981FA8181813EDE93
:1009A0001FBF6091A938633339F12091AA38309183
:1009B000AB386150D9F070E08FEF92E33DD3F9018D
:1009C0004091A4385091A538CF01821B930B841716
:1009D000950778F4DF014D91469FC001479F900D28
:1009E00011249083FD01ECCF8E7FC4CF70E060E0D6
:1009F000E6CF83E38093A93861E08091A8380EDECA
:100A00008091A83885DD81E08093A138FADC1986D1
:100A10001A8610E000E0312C212C1B821C821982E6
:100A20001A8289859A85092E000CAA0BBB0B8D832F
:100A30009E83AF83B8876091A2387091A338A98153
:100A4000BA81A617B70708F0A6C08B819C81F4D2A3
:100A5000620D6095653508F077C0862F880F880F86
:100A6000C62EC81ACA94D12CF12CE12C7601DD24B3
:100A7000CC24862F880F680FC62A6D817E818F81D6
:100A80009885C3D120E030E048EC52E423D12B011B
:100A90003C01B701FF0C880B990BB7D1A301920160
:100AA00068D280D1862E912CB12CA12CBA2CA92CE5
:100AB000982C88246C2D70E090E080E0A6D1A301F2
:100AC000920157D26FD1862A6D2D70E090E080E0C0
:100AD0009CD1A30192014DD265D1D501C401A62BB1
:100AE000AC01BD0189819A81FEDAA981BA81119692
:100AF000A983BA83EB81FC81F395EB83FC839BCFC5
:100B0000D8014C9150E070E060E0742F66275527C3
:100B1000442789819A81E7DAE981FA813196E9836C
:100B2000FA8377C0D8014C9150E070E060E0742FF8
:100B300066275527442789819A81D5DAE981FA8188
:100B40003196E983FA837BC06A3A88F46555C62EEC
:100B5000CC0CC60ED12CF12CE12CFE2CED2CDC2C77
:100B6000CC24862F880F880F681B615085CF6A5A66
:100B7000862F880F880FB62FB81B8B2F8150C62E5B
:100B8000CC0C6C0DC62ED12CF12CE12C7601DD2481
:100B9000CC24D82A72CF0115110509F063C029852C
:100BA0003A85B901330F880B990B2FD120E030E043
:100BB00046EC52E48BD087FF05C089859A85019663
:100BC00089879A871EDCE2DB7B0183E0882E912CEB
:100BD000A12CB12CDBDB6E197F09683E734008F451
:100BE00063C081149104A104B10409F053C02FEF34
:100BF000221A320A211431E0330609F00ECF0F5FBA
:100C00001F4F0330110509F006CF08E013E91982E0
:100C10001A828091A2389091A33829813A812817AD
:100C2000390708F46DCFEDDB0F5F1F4F88E094E9C3
:100C30008017910761F707E014E919821A82809101
:100C4000A2389091A33829813A812817390708F4EE
:100C500069CFD7DB0150110987E093E9801791072D
:100C600061F7D5CE0230110509F0ACCFB101032CEC
:100C7000000C880B990BC9D020E030E04BE153E425
:100C800074D118160CF09ECFA985BA851197A98743
:100C9000BA8798CFB1E08B1A9108A108B108E8E1B2
:100CA000EE1AECEFFE0A96CF81149104A104B10470
:100CB00009F090CF9CCF8091AA389091AB380097E3
:100CC00009F089D260E08091A838A8CCD9D008F486
:100CD00081E008950CD00FC107D140F0FED030F074
:100CE00021F45F3F19F0F0C0511139C1F3C014D1A4
:100CF00098F39923C9F35523B1F3951B550BBB27E3
:100D0000AA2762177307840738F09F5F5F4F220F8F
:100D1000331F441FAA1FA9F333D00E2E3AF0E0E888
:100D200030D091505040E695001CCAF729D0FE2FD4
:100D300027D0660F771F881FBB1F26173707480766
:100D4000AB07B0E809F0BB0B802DBF01FF2793581C
:100D50005F4F2AF09E3F510568F0B6C000C15F3F6B
:100D6000ECF3983EDCF3869577956795B795F79504
:100D70009F5FC9F7880F911D9695879597F90895FC
:100D8000E1E0660F771F881FBB1F62177307840798
:100D9000BA0720F0621B730B840BBA0BEE1F88F7A7
:100DA000E095089504D06894B111D9C00895BCD0DD
:100DB00088F09F5790F0B92F9927B751A0F0D1F044
:100DC000660F771F881F991F1AF0BA95C9F712C0CE
:100DD000B13081F0C3D0B1E00895C0C0672F782F43
:100DE0008827B85F39F0B93FCCF38695779567953A
:100DF000B395D9F73EF490958095709561957F4FA6
:100E00008F4F9F4F0895E89409C097FB3EF490954B
:100E10008095709561957F4F8F4F9F4F9923A9F0D3
:100E2000F92F96E9BB279395F69587957795679562
:100E3000B795F111F8CFFAF4BB0F11F460FF1BC0A6
:100E40006F5F7F4F8F4F9F4F16C0882311F096E939
:100E500011C0772321F09EE8872F762F05C06623E7
:100E600071F096E8862F70E060E02AF09A95660FA0
:100E7000771F881FDAF7880F9695879597F9089559
:100E8000990F0008550FAA0BE0E8FEEF161617069B
:100E9000E807F907C0F012161306E407F50798F003
:100EA000621B730B840B950B39F40A2661F0232B1C
:100EB000242B252B21F408950A2609F4A140A69598
:100EC0008FEF811D811D089597F99F6780E870E07D
:100ED00060E008959FEF80EC089500240A941616B0
:100EE000170618060906089500240A941216130618
:100EF000140605060895092E0394000C11F48823A6
:100F000052F0BB0F40F4BF2B11F460FF04C06F5FC1
:100F10007F4F8F4F9F4F089557FD9058440F551F97
:100F200059F05F3F71F04795880F97FB991F61F06B
:100F30009F3F79F087950895121613061406551FE2
:100F4000F2CF4695F1DF08C0161617061806991F4E
:100F5000F1CF86957105610508940895E894BB2743
:100F600066277727CB0197F908958ADF08F48FEF7A
:100F700008950BD0C0CFB1DF28F0B6DF18F095236D
:100F800009F0A2CFA7CF1124EACFC6DFA0F3959F27
:100F9000D1F3950F50E0551F629FF001729FBB2760
:100FA000F00DB11D639FAA27F00DB11DAA1F649F0C
:100FB0006627B00DA11D661F829F2227B00DA11DBF
:100FC000621F739FB00DA11D621F839FA00D611D45
:100FD000221F749F3327A00D611D231F849F600D66
:100FE000211D822F762F6A2F11249F5750408AF09F
:100FF000E1F088234AF0EE0FFF1FBB1F661F771F2B
:10100000881F91505040A9F79E3F510570F05CCF6A
:10101000A6CF5F3FECF3983EDCF386957795679516
:10102000B795F795E7959F5FC1F7FE2B880F911D48
:101030009695879597F90895AA1BBB1B51E107C0A8
:10104000AA1FBB1FA617B70710F0A61BB70B881F58
:10105000991F5A95A9F780959095BC01CD010895E7
:101060000FD0A59F900DB49F900DA49F800D911D52
:1010700011240895EE0FFF1F0590F491E02D0994BF
:10108000A29FB001B39FC001A39F700D811D1124C9
:10109000911DB29F700D811D1124911D08950F9314
:1010A0001F93CF93DF938230910510F482E090E09C
:1010B000E091B938F091BA3830E020E0B0E0A0E03B
:1010C000309799F42115310509F44AC0281B390BD2
:1010D00024303105D8F58A819B816115710589F12C
:1010E000FB0182839383FE0111C040815181028103
:1010F000138148175907E0F04817590799F41097DA
:1011000061F012960C93129713961C933296CF01AE
:10111000DF91CF911F910F9108950093B9381093EB
:10112000BA38F4CF2115310551F04217530738F082
:10113000A901DB019A01BD01DF01F801C1CFEF0177
:10114000F9CF8093B9389093BA38CDCFFE01E20F32
:10115000F31F819391932250310928833983D7CF8C
:101160002091B7383091B838232B41F420910238C0
:10117000309103382093B7383093B8382091003835
:10118000309101382115310541F42DB73EB740911A
:10119000043850910538241B350BE091B738F09195
:1011A000B838E217F307A0F42E1B3F0B28173907B6
:1011B00078F0AC014E5F5F4F2417350748F04E0FB3
:1011C0005F1F4093B7385093B838819391939FCF66
:1011D000F0E0E0E09CCFCF93DF930097E9F0FC01D3
:1011E000329712821382A091B938B091BA38ED01CA
:1011F00030E020E01097A1F420813181820F931F0D
:101200002091B7383091B8382817390709F061C0F4
:10121000E093B738F093B838DF91CF910895EA01A1
:10122000CE17DF07E8F54A815B819E014115510524
:10123000B1F7E901EA83FB8349915991C40FD51FA6
:10124000EC17FD0761F4808191810296840F951F50
:10125000E90188839983828193818A839B83F0E06B
:10126000E0E012968D919C9113970097B9F52D911E
:101270003C911197CD010296820F931F2091B738B0
:101280003091B8382817390739F6309751F5109250
:10129000B9381092BA38A093B738B093B838BCCFE9
:1012A000C283D38340815181840F951FC817D9070A
:1012B00061F44E5F5F4F88819981480F591F4083C9
:1012C00051838A819B81828393832115310509F0A3
:1012D000B0CFE093B938F093BA389ECFFD01DC016E
:1012E000C0CF12821382D7CF10E0CFE3D0E003C08B
:1012F000FE01C0DE2196C034D107D1F7F894FFCFAC
:10130000070608090E0F1000000000000000000092
:1013100000000000000000000000000000000000CD
:1013200001010101010101010101010102020202A9
:101330000202020203030303030304040404050579
:10134000050505060606060707070808080909092E
:101350000A0A0A0B0B0B0C0C0D0D0D0E0E0F0F10C5
:10136000101111121213131414151516161718183C
:1013700019191A1B1B1C1D1D1E1F1F202122222391
:10138000242526262728292A2A2B2C2D2E2F3031BA
:1013900032333435363738393A3B3C3D3E3F4041B5
:1013A000424445464748494B4C4D4E505152545586
:1013B0005658595A5C5D5E606163646667696A6C21
:1013C0006D6F7072737577787A7C7D7F8182848689
:1013D00088898B8D8F91929496989A9C9EA0A2A4B6
:1013E000A6A8AAACAEB0B2B4B6B8BABCBFC1C3C5A9
:1013F000C7CACCCED1D3D5D7DADCDFE1E3E6E8EB60
:10140000EDF0F2F5F7FAFCFF10108000000000107C
:1014100010104040000000001000040506070504FD
:1014200003020100000102030102030000000000AA
:101430006601DD000A01B2013B0119012D011020F6
:10144000408020100804020101020408020408017F
:10145000000000000101010101010202020200007E
:0214600000008A
:061462000000BB38800011
:00000001FF
